:100000004FC000006AC0000068C0000066C0000069
:1000100064C0000062C0000060C000005EC000005C
:100020005CC000005AC0000058C0000056C000006C
:1000300054C0000052C0000050C000004EC000007C
:100040004AC100004AC0000048C0000046C000008D
:1000500044C0000042C0000040C000003EC000009C
:100060003CC000003AC00000AAC0000036C000003A
:1000700034C0000032C0000030C000002EC00000BC
:100080002CC000002AC0000028C00000CC00A9003D
:10009000B700BB00BD00D800C100C800D000D4002C
:1000A00011241FBECFEFD0E4DEBFCDBF11E0A0E032
:1000B000B1E0EEE9FBE000E00BBF02C007900D925B
:1000C000A630B107D9F721E0A6E0B1E001C01D924A
:1000D000AD38B207E1F77DD260C592CF8FEF88B916
:1000E00080E28093BA0085EC8093BC0078940895F8
:1000F00080910A018111FCCF85EC8093BC001092A5
:100100000A010895613208F060E2FC0180E090E0AD
:10011000861738F42191DC01A65CBE4F2C93019622
:10012000F7CF6093090185EC8093BC0081E0809358
:100130000A010895CF93DF9300D000D0CDB7DEB78A
:1001400090E0FC013497EA30F10590F5EA5BFF4F4F
:100150001BC58091020190910301A0910401B0910F
:10016000050189839A83AB83BC8364E00EC061E0A0
:100170008AE591E01CC0BBD105C062E089E891E04E
:1001800016C05ED181E0898361E0CE0101960FC087
:1001900062E08BE591E00BC062E08BE891E007C084
:1001A00066E183E791E003C066E18DE591E0AADFB7
:1001B0000F900F900F900F90DF91CF9108951F92A5
:1001C0000F920FB60F9211240BB60F922F933F93FD
:1001D0004F935F936F937F938F939F93AF93BF934F
:1001E000EF93FF938091B900887F803A99F158F49A
:1001F0008036B9F018F48823B1F155C08038B9F0D1
:10020000883889F150C0883B91F130F4883A09F080
:100210004AC0109206012BC0803CE1F1883C19F1E4
:1002200042C081E080930701109206010FC0E09167
:10023000060181E08E0F80930601F0E08091BB0003
:10024000E65EFE4F808381E08093080195EC9093F9
:10025000BC001DC085EC8093BC0010920A01809107
:100260001A0168DF25C080E98093BC0021C0E091BD
:10027000060181E08E0F80930601F0E0E65CFE4F00
:1002800080818093BB0085EC8093BC0081E08093EB
:100290000A010EC08091090190910601981303C0D4
:1002A00081E08093080185EC8093BC0010920A01E4
:1002B000FF91EF91BF91AF919F918F917F916F913E
:1002C0005F914F913F912F910F900BBE0F900FBEFA
:1002D0000F901F9018951F920F920FB60F92112436
:1002E0008F939F93AF93BF9380910B0190910C01DB
:1002F000A0910D01B0910E010196A11DB11D809339
:100300000B0190930C01A0930D01B0930E01BF91CE
:10031000AF919F918F910F900FBE0F901F901895E6
:1003200082E084BD93E095BD9CE797BD80936E000D
:1003300078940895F89460910B0170910C0180916C
:100340000D0190910E01789408958EBD0DB407FEB5
:10035000FDCF8EB50895CF932C9884E9F6DF80E029
:10036000F4DF2C9A8BE291E00197F1F700C00000D6
:100370002C9880E8EADF80E0E8DFC82F80E0E5DF46
:100380002C9A2C2F30E0322F2227A901482BCA01AA
:1003900095FF04C096958795977002C08FEF9FEFE9
:1003A000CF91089584B1806B84B981E58CBD2C9A7E
:1003B0002FE78AE196E0215080409040E1F700C0AD
:1003C00000002C9884E9C1DF80E0BFDF2C9A8BE22B
:1003D00091E00197F1F700C000002C9880E8B5DFAC
:1003E00080E0B3DF80E0B1DF2C9A9FEF20E782E06E
:1003F000915020408040E1F700C00000ACDF8F3F0B
:100400002FEF920721F09093010180930001109249
:1004100019011092180110921401109215011092F6
:1004200016011092170110920F017ADF83DF60939B
:10043000100170931101809312019093130108959C
:1004400010921401109215011092160110921701CA
:1004500071DF6093100170931101809312019093EA
:10046000130181E080930F01089575DF2091190138
:100470008F3F3FEF930711F4822F089540910001C1
:1004800050910101841B950B97FF03C091958195B5
:100490009109213069F018F0223091F025C0C397FE
:1004A0001CF181E08093190110921801C9DF1CC072
:1004B000C297D4F482E0809319012093180114C0EC
:1004C000C2976CF4809118018F5F809318018A3075
:1004D00059F483E08093190110920F0105C081E067
:1004E00080931901109218018091190108951092BA
:1004F000190110921801A4CFCF92DF92EF92FF92D0
:10050000CF93DF9380910F01882309F452C023DF3A
:10051000EC01CF3F8FEFD80709F44BC00BDFC09041
:100520001001D0901101E0901201F090130160933E
:100530001001709311018093120190931301209187
:10054000000130910101C21BD30B9E01275F3F4F79
:100550002331310570F16C197D098E099F090FD285
:1005600020E030E04AE754E471D16B017C01BE0128
:10057000DD0F880B990B05D22DEC3CEC4CE450E4DC
:1005800065D19B01AC01C701B60187D29B01AC01CB
:1005900060911401709115018091160190911701DD
:1005A000F1D060931401709315018093160190931C
:1005B0001701DF91CF91FF90EF90DF90CF900895DA
:1005C00060911401709115018091160190911701AD
:1005D000089584DD9DD0E6DE33DF56D089DDC0E0AE
:1005E000D0E080910A0181110BC08091080188231D
:1005F00031F08091070180910A01811101C078DDFD
:10060000CE019370892B11F447D064D075DFA3DE3F
:1006100090938A018093890128DF80935A01D0DF6B
:100620007DD170935C0160935B01209751F42B9A0C
:1006300080E28A95F1F72B988FD090938C0180936C
:100640008B012196CECFEAE7F0E080E880838081BD
:100650008660808380E480937C00089590917C0084
:10066000987F8770892B80937C0080917A008064CA
:1006700080937A0080917A0086FDFCCF809178008B
:100680009091790093700895DEDF81B18F6181B917
:100690008AB18F618AB90895CF93DF93C0E0D0E02B
:1006A00082B1807F82B982B19C2F9F5F892B82B9F2
:1006B000149A85E0D3DFFE01EE0FFF1FE35AFE4FD1
:1006C0009183808314982196CB30D10549F7DF912F
:1006D000CF910895CF93DF93C0E0D0E08BB1807FBE
:1006E0008BB98BB19C2F9F5F892B8BB95C9A86E06D
:1006F000B5DFFE01EE0FFF1FED58FE4F91838083A3
:100700005C982196CB30D10549F7DF91CF910895C0
:100710002298239A08951A990FC08091840090918D
:100720008500803E9E42B8F314C080918400909171
:100730008500803E9E4268F41A99F7CF109281009E
:100740008091840090918500880F991F880F991FD0
:10075000089580E090E008951092800083E08093F7
:100760008100109285001092840087EC90E0019740
:10077000F1F700C00000CFDF62E270E0F1D1CB0101
:1007800008955058BB27AA270ED04DC13ED130F056
:1007900043D120F031F49F3F11F41EF433C10EF425
:1007A000E095E7FB29C1E92F4FD180F3BA17620723
:1007B00073078407950718F071F49EF567C10EF46E
:1007C000E0950B2EBA2FA02D0B01B90190010C0161
:1007D000CA01A0011124FF27591B99F0593F50F479
:1007E000503E68F11A16F040A22F232F342F4427D1
:1007F000585FF3CF469537952795A795F0405395C9
:10080000C9F77EF41F16BA0B620B730B840BBAF098
:100810009150A1F0FF0FBB1F661F771F881FC2F703
:100820000EC0BA0F621F731F841F48F48795779517
:100830006795B795F7959E3F08F0B3CF9395880FCE
:1008400008F09927EE0F9795879508950CD0EBC087
:10085000E3D040F0DAD030F021F45F3F19F0CCC0A3
:10086000511115C1CFC0F0D098F39923C9F3552386
:10087000B1F3951B550BBB27AA2762177307840793
:1008800038F09F5F5F4F220F331F441FAA1FA9F349
:1008900033D00E2E3AF0E0E830D091505040E6953B
:1008A000001CCAF729D0FE2F27D0660F771F881F9C
:1008B000BB1F261737074807AB07B0E809F0BB0B8B
:1008C000802DBF01FF2793585F4F2AF09E3F5105AF
:1008D00068F092C0DCC05F3FECF3983EDCF3869595
:1008E00077956795B795F7959F5FC9F7880F911D25
:1008F0009695879597F90895E1E0660F771F881F11
:10090000BB1F621773078407BA0720F0621B730BC3
:10091000840BBA0BEE1F88F7E095089504D0689415
:10092000B111B5C0089598D088F09F5790F0B92FB5
:100930009927B751A0F0D1F0660F771F881F991F34
:100940001AF0BA95C9F712C0B13081F09FD0B1E06A
:1009500008959CC0672F782F8827B85F39F0B93F7A
:10096000CCF3869577956795B395D9F73EF4909536
:100970008095709561957F4F8F4F9F4F0895E894B4
:1009800009C097FB3EF490958095709561957F4FD7
:100990008F4F9F4F9923A9F0F92F96E9BB27939585
:1009A000F695879577956795B795F111F8CFFAF495
:1009B000BB0F11F460FF1BC06F5F7F4F8F4F9F4FC6
:1009C00016C0882311F096E911C0772321F09EE824
:1009D000872F762F05C0662371F096E8862F70E08A
:1009E00060E02AF09A95660F771F881FDAF7880F64
:1009F0009695879597F9089597F99F6780E870E035
:100A000060E008959FEF80EC089500240A94161684
:100A1000170618060906089500240A9412161306EC
:100A2000140605060895092E0394000C11F488237A
:100A300052F0BB0F40F4BF2B11F460FF04C06F5F96
:100A40007F4F8F4F9F4F089557FD9058440F551F6C
:100A500059F05F3F71F04795880F97FB991F61F040
:100A60009F3F79F087950895121613061406551FB7
:100A7000F2CF4695F1DF08C0161617061806991F23
:100A8000F1CF86957105610508940895E894BB2718
:100A900066277727CB0197F908950BD0C4CFB5DF30
:100AA00028F0BADF18F0952309F0A6CFABCF1124B8
:100AB000EECFCADFA0F3959FD1F3950F50E0551FFD
:100AC000629FF001729FBB27F00DB11D639FAA27A3
:100AD000F00DB11DAA1F649F6627B00DA11D661FF2
:100AE000829F2227B00DA11D621F739FB00DA11D13
:100AF000621F839FA00D611D221F749F3327A00DCD
:100B0000611D231F849F600D211D822F762F6A2F68
:100B100011249F5750408AF0E1F088234AF0EE0FED
:100B2000FF1FBB1F661F771F881F91505040A9F7FA
:100B30009E3F510570F060CFAACF5F3FECF3983E27
:100B4000DCF3869577956795B795F795E7959F5F61
:100B5000C1F7FE2B880F911D9695879597F90895FB
:100B6000AA1BBB1B51E107C0AA1FBB1FA617B707D3
:100B700010F0A61BB70B881F991F5A95A9F78095EF
:100B80009095BC01CD010895EE0FFF1F0024001CBD
:0E0B90000BBE0790F691E02D0994F894FFCF6C
:060B9E00F003AABBCCDD50
:00000001FF
