:100000005AC0000075C0000073C0000071C000003D
:100010006FC000006DC000006BC0000069C0000030
:1000200067C0000065C0000063C0000061C0000040
:100030005FC000005DC000005BC0000059C0000050
:1000400057C0000055C0000053C0000051C0000060
:100050004FC000004DC000004BC0000049C0000070
:1000600047C0000045C000004EC0000041C0000075
:100070003FC000003DC000003BC0000039C0000090
:1000800037C0000035C0000033C00000E405E605BD
:10009000E805EC05F005F405F805FC050106060683
:1000A000100612061C06260630063A0644064606C8
:1000B00048064A064C0611241FBECFEFD0E4DEBF2F
:1000C000CDBF11E0A0E0B1E0E0E5F0E100E00BBF62
:1000D00002C007900D92A232B107D9F721E0A2E247
:1000E000B1E001C01D92AC37B207E1F7D7D5AEC77A
:1000F00087CF9FEF98B9880F8093BA0085EC8093E3
:10010000BC00789408951F920F920FB60F9211249D
:100110000BB60F928F939F93EF93FF938091B9004B
:10012000887F883851F138F4803669F0803889F05A
:10013000811155C022C0883A39F1883BB9F1803A23
:1001400009F04DC01AC085EC8093BC0010922501C7
:1001500049C080912501803160F4E091250181E062
:100160008E0F80932501F0E08091BB00EC5CFE4F88
:10017000808385EC8093BC0035C085EC8093BC0007
:1001800081E0809324012EC010922301E09123018D
:1001900081E08E0F80932301F0E0EC5BFE4F8081C5
:1001A0008093BB0085EC8093BC001CC09091230120
:1001B00080912201981768F4E091230181E08E0F6D
:1001C00080932301F0E0EC5BFE4F80818093BB00C5
:1001D00002C01092BB0085EC8093BC0003C085EC8C
:1001E0008093BC00FF91EF919F918F910F900BBE78
:1001F0000F900FBE0F901F9018958F929F92AF9205
:10020000BF92CF92DF92EF92FF92CF936B017C016E
:100210004B015C01E894B7F820E030E04FE753E48D
:10022000C501B40170D6882324F08FEF809332018A
:1002300005C0C501B401ADD560933201C1E020E035
:1002400030E0A901C701B6015ED688230CF4C0E0F6
:10025000C0933101CF91FF90EF90DF90CF90BF908E
:10026000AF909F908F9008950F93CF93DF93DC0111
:100270008FEF8C9311968C93119712966C93129723
:1002800082E0800F13968C93139714964C931497D7
:1002900040E050E00BC0FA013596EA0FFB1FE90180
:1002A000C40FD51F888180834F5F5F4F602F70E040
:1002B0004617570784F30A5F42E050E080E007C02A
:1002C000FD01E40FF51F9081890F4F5F5F4F202FD5
:1002D00030E0215031094217530794F380956B5F4A
:1002E0007F4FFD01E60FF71F8083DF91CF910F91C4
:1002F000089520E030E046E953E4DED420E030EC1D
:100300004FE754E404D640D5CB0108951AB817B886
:1003100014B811B81BB818B815B883E08BB984E0CD
:100320008AB908959091C00095FFFCCF8093C600D4
:10033000089588E08093C1008BB184608BB90895E3
:1003400080E18093C1008BB18B7F8BB908951092AF
:10035000C5001092C40082E08093C00086E08093C4
:10036000C200EECF08950F931F93CF93DF938C01BC
:10037000E0DFF801D381DC5FC0E006C0F801EC0FDC
:10038000F11D8081CFDFCF5FCD17C0F3E0ECF0E04F
:10039000808180648083D4DFDF91CF911F910F91A2
:1003A0000895CF92DF92EF92FF920F931F93CF9316
:1003B000DF93CDB7DEB7E3970FB6F894DEBF0FBE7D
:1003C000CDBF80E1898381E08A8302E09E012F5FB7
:1003D0003F4F43E06EEF84E591E046DF84E591E036
:1003E000C2DF85E08B8312E01C839E012D5F3F4FAF
:1003F00043E06EEF84E591E037DF84E591E0B3DF21
:100400000F2EF2E2FF2EF02DFD828FEF8E8383E020
:100410008F8303E09E012B5F3F4F43E06EEF84E547
:1004200091E022DF84E591E09EDFF88683E389870F
:100430001A879E01285F3F4F43E068E084E591E022
:1004400013DF84E591E08FDF80E28B8788E88C877B
:100450001D869E01255F3F4F43E06EEF84E591E0EE
:1004600003DF84E591E07FDF80E2E2E0F1E0DE019E
:100470001E9601900D928A95E1F780E090E04AC0C7
:100480006C012FEFC21AD20A7C01EE0CFF1CF7019F
:10049000EE0FFF1F81E090E08C0F9D1FE80FF91F0A
:1004A00065857685072E000C880B990BA0D421DF7B
:1004B00026E029AB8AAB9BAB03E09E012F5C3F4F4C
:1004C00043E06C2D84E591E0CFDE84E591E04BDFE5
:1004D000F7013196EE0FFF1F81E090E08C0F9D1F1A
:1004E000E80FF91F65857685072E000C880B990BA0
:1004F0007ED4FFDE28E02EA78FA798AB9E01225D59
:100500003F4F43E06C2D84E591E0AEDE84E591E061
:100510002ADFC601883091050CF4B2CFE3960FB6FE
:10052000F894DEBF0FBECDBFDF91CF911F910F9129
:10053000FF90EF90DF90CF900895DF92EF92FF92BF
:100540000F931F93CF93DF93CDB7DEB72B970FB6E3
:10055000F894DEBF0FBECDBFD82E162F7A0180E2F1
:1005600089832A833B8303E09E012F5F3F4F43E053
:100570006D2D84E591E078DE84E591E0F4DE9E0166
:100580002F5F3F4F43E0612F84E591E06DDE84E50E
:1005900091E0E9DE8FEF93E08E199F092EE12C8325
:1005A00022E02D83DE82EF82F88619878A879B8777
:1005B00008E09E012C5F3F4F43E86EEF84E591E039
:1005C00053DE84E591E0CFDE2B960FB6F894DEBFC4
:1005D0000FBECDBFDF91CF911F910F91FF90EF9094
:1005E000DF90089590932A0180932901BC01990F0F
:1005F000880B990BFCD37DDE24E630E0AC0163E090
:1006000082E09BCF089590932C0180932B01BC0135
:10061000990F880B990BEBD36CDE24E630E0AC012C
:1006200065E084E08ACF0895EF92FF920F931F93C5
:10063000CF93DF9300D000D000D0CDB7DEB7182F16
:10064000E62EF72E80E289834A835B8303E09E01D6
:100650002F5F3F4F43E0612F84E591E005DE84E5A5
:1006600091E081DE8EE18C83ED82FE829E012C5F23
:100670003F4F43E0612F84E591E0F6DD84E591E0B2
:1006800072DE26960FB6F894DEBF0FBECDBFDF91A7
:10069000CF911F910F91FF90EF90089590933001AB
:1006A00080932F01BC01990F880B990BA0D321DEF9
:1006B00044E650E0BC0181E0B7CF089590932E014D
:1006C00080932D01BC01990F880B990B90D311DEFB
:1006D00044E650E0BC0186E0A7CF0895909328013E
:1006E00080932701BC01990F880B990B80D301DE01
:1006F00044E650E0BC0187E097CF08958CE390E09A
:10070000EDDF8AE590E0CADF86E990E06BDF82E802
:1007100090E079DF2FEF89E698E12150804090400A
:10072000E1F700C0000089EB90E0C8DF89EB90E0C2
:1007300059CF08958CE390E0D1DF82ED90E0AEDFF9
:1007400086E990E04FDF82E890E05DDF2FEF89E6F9
:1007500098E1215080409040E1F700C0000089EB13
:1007600090E0ACDF89EB90E03DCF089560E070E071
:1007700086E193E4BEDD48E850E0BC0188E054CF58
:1007800008958CE390E02EDF2FEF89E698E1215069
:1007900080409040E1F700C0000086E990E08EDFE5
:1007A00082E890E07BDF8CE390E02DDF86E990E04B
:1007B00095DF2FEF83ED90E3215080409040E1F7EB
:1007C00000C0000085E590E00DDF2FEF89E698E19D
:1007D000215080409040E1F700C00000C7CF08954D
:1007E000C5DF8CE390E0FEDE2FEF89E698E1215033
:1007F00080409040E1F700C000008CE390E05EDFB5
:1008000086E990E04BDF8CE390E0FDDE86E990E046
:1008100065DF2FEF83ED90E3215080409040E1F7BA
:1008200000C000000895ADDF2FEF83ED90E321506D
:1008300080409040E1F700C00000D2CF089548E822
:1008400050E060E070E088E0EFCE089573DF2FEFB6
:1008500083ED90E3215080409040E1F700C000001C
:1008600080EF90E01BDF2FEF89E698E12150804078
:100870009040E1F700C00000E2CF0895E7DF2FEFDE
:1008800083ED90E3215080409040E1F700C00000EC
:10089000CACF089533DF2FEF83ED90E321508040DE
:1008A0009040E1F700C000008CE390E0F7DE2FEF0E
:1008B00089E698E1215080409040E1F700C00000B7
:1008C000BECF0895E7DF2FEF83ED90E32150804006
:1008D0009040E1F700C00000A6CF08950F93CF939A
:1008E000DF9300D01F92CDB7DEB782E2898383E326
:1008F0008A8383E08B8303E09E012F5F3F4F43E0B9
:1009000068E084E591E0B0DC84E591E02CDD8AE5E7
:1009100090E0C4DE81E990E065DE88E790E073DE78
:1009200087ED90E0CBDE8DEC90E0D8DE2FEF87EA0C
:1009300091E6215080409040E1F700C000008EE633
:1009400090E0ACDE2FEF83ED90E3215080409040AB
:10095000E1F700C0000073DF2FEF87EA91E6215036
:1009600080409040E1F700C000008FE890E03ADE60
:100970008AED90E0A3DE2FEF89E698E121508040D8
:100980009040E1F700C000008DE890E02BDE8CED98
:1009900090E094DE8DE690E081DE2FEF89E698E12D
:1009A000215080409040E1F700C000008BE890E0CB
:1009B00019DE8EED90E082DE2FEF89E698E121507E
:1009C00080409040E1F700C000008CE390E066DEDC
:1009D00086E990E018DE8CED90E070DE86E990E02C
:1009E00001DE2FEF83ED90E3215080409040E1F74E
:1009F00000C0000088EC90E0F5DD2FEF89E698E17B
:100A0000215080409040E1F700C0000084EB90E06E
:100A100055DEACDE2FEF83ED90E321508040904017
:100A2000E1F700C00000DCDE0F900F900F90DF9127
:100A3000CF910F9108958AB180638AB9E0E8F0E020
:100A40008081816A8083E1E8F0E080818B6080832F
:100A5000109289001092880010928B0010928A00E8
:100A60000895E9DF8AB1806C8AB98BB180648BB953
:100A700008954091320120913301429F9001112449
:100A8000A1E8B0E8D4D29C01220F232F221F330B00
:100A9000319580910101821B90E020913101222348
:100AA00041F0242F30E0AC01420F531F821B930B07
:100AB00007C0242F30E0AC01421B530B820F931F61
:100AC00055233CF04F3F510531F02CF04FEF50E0F3
:100AD00002C040E050E05093890040938800992381
:100AE0003CF08F3F910531F02CF08FEF90E002C089
:100AF00080E090E090938B0080938A008BB18064BB
:100B00008BB98BB18F778BB908958091010190E0FB
:100B100090938900809388008091010190E09093E8
:100B20008B0080938A008BB18F7B8BB98BB18068EF
:100B30008BB908958091000190E090938900809393
:100B400088008091000190E090938B0080938A0050
:100B50008BB180648BB98BB180688BB9089580911B
:100B6000000190E0909389008093880080910001BB
:100B700090E090938B0080938A008BB18F7B8BB930
:100B80008BB18F778BB908951092890010928800ED
:100B900010928B0010928A0008958091240188237E
:100BA00009F47BC010922401A4E3B1E0EC9111960A
:100BB0002C918E2F90E0FC013A97E531F10508F079
:100BC0006CC0EA5BFF4F2AC27DCE089557CE0895D0
:100BD00010922601C4CF089510922601ABCF08953C
:100BE00081E0809326010895109226018ECF08950A
:100BF00010922601C9CF089580913501809301019B
:100C00000895809135018093000108956091350128
:100C1000709136018091370190913801EECA0895A4
:100C20005DCE089580912F0190913001820F911D2A
:100C300027FD9A9533CD08958091290190912A013D
:100C4000820F911D27FD9A95CDCC089580912B019F
:100C500090912C01820F911D27FD9A95D4CC089577
:100C600080912D0190912E01820F911D27FD9A9563
:100C700025CD08958091270190912801820F911D23
:100C800027FD9A952BCD089571CD0895D8CD08955F
:100C900035CD08954FCD0895C6CD089537DB80E258
:100CA00028DA55DBDEDE7DDB9BDD77DF80912601F8
:100CB0008823D9F3DEDEF9CF0CD0EBC0E3D040F0CF
:100CC000DAD030F021F45F3F19F0CCC0511115C1DA
:100CD000CFC0F0D098F39923C9F35523B1F3951BF6
:100CE000550BBB27AA2762177307840738F09F5F4D
:100CF0005F4F220F331F441FAA1FA9F333D00E2EBC
:100D00003AF0E0E830D091505040E695001CCAF728
:100D100029D0FE2F27D0660F771F881FBB1F2617ED
:100D200037074807AB07B0E809F0BB0B802DBF01C0
:100D3000FF2793585F4F2AF09E3F510568F092C0FD
:100D4000DCC05F3FECF3983EDCF3869577956795C2
:100D5000B795F7959F5FC9F7880F911D9695879571
:100D600097F90895E1E0660F771F881FBB1F621790
:100D700073078407BA0720F0621B730B840BBA0B4E
:100D8000EE1F88F7E095089504D06894B111B5C0BE
:100D9000089598D088F09F5790F0B92F9927B751B0
:100DA000A0F0D1F0660F771F881F991F1AF0BA952F
:100DB000C9F712C0B13081F09FD0B1E008959CC056
:100DC000672F782F8827B85F39F0B93FCCF3869525
:100DD00077956795B395D9F73EF490958095709582
:100DE00061957F4F8F4F9F4F0895E89409C097FBFF
:100DF0003EF490958095709561957F4F8F4F9F4FF2
:100E00009923A9F0F92F96E9BB279395F695879535
:100E100077956795B795F111F8CFFAF4BB0F11F4F8
:100E200060FF1BC06F5F7F4F8F4F9F4F16C088239F
:100E300011F096E911C0772321F09EE8872F762FD5
:100E400005C0662371F096E8862F70E060E02AF016
:100E50009A95660F771F881FDAF7880F9695879502
:100E600097F9089597F99F6780E870E060E008952A
:100E70009FEF80EC089500240A94161617061806B2
:100E80000906089500240A9412161306140605068E
:100E90000895092E0394000C11F4882352F0BB0F1F
:100EA00040F4BF2B11F460FF04C06F5F7F4F8F4F82
:100EB0009F4F089557FD9058440F551F59F05F3FBD
:100EC00071F04795880F97FB991F61F09F3F79F06C
:100ED00087950895121613061406551FF2CF4695EE
:100EE000F1DF08C0161617061806991FF1CF869570
:100EF0007105610508940895E894BB276627772754
:100F0000CB0197F9089566D008F48FEF08950BD0C0
:100F1000C0CFB1DF28F0B6DF18F0952309F0A2CFDB
:100F2000A7CF1124EACFC6DFA0F3959FD1F3950F89
:100F300050E0551F629FF001729FBB27F00DB11D5D
:100F4000639FAA27F00DB11DAA1F649F6627B00DED
:100F5000A11D661F829F2227B00DA11D621F739FD6
:100F6000B00DA11D621F839FA00D611D221F749FE4
:100F70003327A00D611D231F849F600D211D822F2B
:100F8000762F6A2F11249F5750408AF0E1F0882372
:100F90004AF0EE0FFF1FBB1F661F771F881F91507F
:100FA0005040A9F79E3F510570F05CCFA6CF5F3F40
:100FB000ECF3983EDCF3869577956795B795F795B2
:100FC000E7959F5FC1F7FE2B880F911D969587953A
:100FD00097F90895990F0008550FAA0BE0E8FEEF66
:100FE00016161706E807F907C0F012161306E407ED
:100FF000F50798F0621B730B840B950B39F40A26E6
:1010000061F0232B242B252B21F408950A2609F4C3
:10101000A140A6958FEF811D811D0895EE0FFF1F42
:101020000024001C0BBE0790F691E02D0994A29FAE
:10103000B001B39FC001A39F700D811D1124911DAC
:10104000B29F700D811D1124911D0895F894FFCF5A
:10105000963C000068013C00F0003C00F0003C00C1
:1010600004012800F0003C00F00000002C0100000A
:021070009600E8
:00000001FF
